{
  "contractName": "RockPaperScissors",
  "abi": [
    {
      "constant": false,
      "inputs": [
        {
          "name": "hashPlayerOneMove",
          "type": "bytes32"
        },
        {
          "name": "passKey",
          "type": "bytes32"
        },
        {
          "name": "move",
          "type": "uint8"
        }
      ],
      "name": "playerOneRevealMove",
      "outputs": [],
      "payable": false,
      "stateMutability": "nonpayable",
      "type": "function"
    },
    {
      "constant": false,
      "inputs": [],
      "name": "withdrawFunds",
      "outputs": [
        {
          "name": "withdrawSuccess",
          "type": "bool"
        }
      ],
      "payable": false,
      "stateMutability": "nonpayable",
      "type": "function"
    },
    {
      "constant": false,
      "inputs": [
        {
          "name": "playerTwoMove",
          "type": "uint8"
        },
        {
          "name": "existingGameHash",
          "type": "bytes32"
        }
      ],
      "name": "joinGame",
      "outputs": [],
      "payable": true,
      "stateMutability": "payable",
      "type": "function"
    },
    {
      "constant": true,
      "inputs": [
        {
          "name": "",
          "type": "bytes32"
        }
      ],
      "name": "usedPlayerMoves",
      "outputs": [
        {
          "name": "",
          "type": "bool"
        }
      ],
      "payable": false,
      "stateMutability": "view",
      "type": "function"
    },
    {
      "constant": true,
      "inputs": [
        {
          "name": "",
          "type": "bytes32"
        }
      ],
      "name": "activeGames",
      "outputs": [
        {
          "name": "playerOne",
          "type": "address"
        },
        {
          "name": "playerTwo",
          "type": "address"
        },
        {
          "name": "winner",
          "type": "address"
        },
        {
          "name": "playerOneMove",
          "type": "bytes32"
        },
        {
          "name": "playerTwoMove",
          "type": "uint8"
        },
        {
          "name": "betAmount",
          "type": "uint256"
        },
        {
          "name": "gameDuration",
          "type": "uint256"
        }
      ],
      "payable": false,
      "stateMutability": "view",
      "type": "function"
    },
    {
      "constant": false,
      "inputs": [
        {
          "name": "gameID",
          "type": "bytes32"
        }
      ],
      "name": "durationPassedPlayerClaim",
      "outputs": [],
      "payable": false,
      "stateMutability": "nonpayable",
      "type": "function"
    },
    {
      "constant": true,
      "inputs": [],
      "name": "owner",
      "outputs": [
        {
          "name": "",
          "type": "address"
        }
      ],
      "payable": false,
      "stateMutability": "view",
      "type": "function"
    },
    {
      "constant": false,
      "inputs": [
        {
          "name": "hashPlayerOneMove",
          "type": "bytes32"
        },
        {
          "name": "gameDuration",
          "type": "uint256"
        }
      ],
      "name": "createGame",
      "outputs": [],
      "payable": true,
      "stateMutability": "payable",
      "type": "function"
    },
    {
      "constant": true,
      "inputs": [
        {
          "name": "",
          "type": "address"
        }
      ],
      "name": "funds",
      "outputs": [
        {
          "name": "",
          "type": "uint256"
        }
      ],
      "payable": false,
      "stateMutability": "view",
      "type": "function"
    },
    {
      "inputs": [],
      "payable": false,
      "stateMutability": "nonpayable",
      "type": "constructor"
    },
    {
      "anonymous": false,
      "inputs": [
        {
          "indexed": false,
          "name": "playerOne",
          "type": "address"
        },
        {
          "indexed": false,
          "name": "gameHash",
          "type": "bytes32"
        },
        {
          "indexed": false,
          "name": "betAmount",
          "type": "uint256"
        }
      ],
      "name": "LogGameCreated",
      "type": "event"
    },
    {
      "anonymous": false,
      "inputs": [
        {
          "indexed": false,
          "name": "playerTwoMove",
          "type": "uint8"
        }
      ],
      "name": "LogPlayerTwoSetMove",
      "type": "event"
    },
    {
      "anonymous": false,
      "inputs": [
        {
          "indexed": false,
          "name": "playerOne",
          "type": "address"
        },
        {
          "indexed": false,
          "name": "playerOneMove",
          "type": "uint8"
        },
        {
          "indexed": false,
          "name": "playerTwo",
          "type": "address"
        },
        {
          "indexed": false,
          "name": "playerTwoMove",
          "type": "uint8"
        }
      ],
      "name": "LogTieGame",
      "type": "event"
    },
    {
      "anonymous": false,
      "inputs": [
        {
          "indexed": false,
          "name": "winningPlayer",
          "type": "address"
        },
        {
          "indexed": false,
          "name": "funds",
          "type": "uint256"
        }
      ],
      "name": "LogWinner",
      "type": "event"
    }
  ],
  "bytecode": "0x6060604052341561000f57600080fd5b336000806101000a81548173ffffffffffffffffffffffffffffffffffffffff021916908373ffffffffffffffffffffffffffffffffffffffff16021790555061161e8061005e6000396000f300606060405260043610610099576000357c0100000000000000000000000000000000000000000000000000000000900463ffffffff168063041011851461009e57806324600fc3146100de578063324346591461010b57806339454b21146101335780633accbfda146101725780635032a3aa146102715780638da5cb5b14610298578063c0b9c53c146102ed578063e2ae93fb14610312575b600080fd5b34156100a957600080fd5b6100dc6004808035600019169060200190919080356000191690602001909190803560ff1690602001909190505061035f565b005b34156100e957600080fd5b6100f16104a8565b604051808215151515815260200191505060405180910390f35b610131600480803560ff16906020019091908035600019169060200190919050506105d0565b005b341561013e57600080fd5b61015860048080356000191690602001909190505061073b565b604051808215151515815260200191505060405180910390f35b341561017d57600080fd5b61019760048080356000191690602001909190505061075b565b604051808873ffffffffffffffffffffffffffffffffffffffff1673ffffffffffffffffffffffffffffffffffffffff1681526020018773ffffffffffffffffffffffffffffffffffffffff1673ffffffffffffffffffffffffffffffffffffffff1681526020018673ffffffffffffffffffffffffffffffffffffffff1673ffffffffffffffffffffffffffffffffffffffff168152602001856000191660001916815260200184600381111561024b57fe5b60ff16815260200183815260200182815260200197505050505050505060405180910390f35b341561027c57600080fd5b61029660048080356000191690602001909190505061080a565b005b34156102a357600080fd5b6102ab610a7f565b604051808273ffffffffffffffffffffffffffffffffffffffff1673ffffffffffffffffffffffffffffffffffffffff16815260200191505060405180910390f35b610310600480803560001916906020019091908035906020019091905050610aa4565b005b341561031d57600080fd5b610349600480803573ffffffffffffffffffffffffffffffffffffffff16906020019091905050610ced565b6040518082815260200191505060405180910390f35b6000803385604051808373ffffffffffffffffffffffffffffffffffffffff1673ffffffffffffffffffffffffffffffffffffffff166c01000000000000000000000000028152601401826000191660001916815260200192505050604051809103902091508284604051808360038111156103d757fe5b60ff167f0100000000000000000000000000000000000000000000000000000000000000028152600101826000191660001916815260200192505050604051809103902090508460001916816000191614151561043357600080fd5b600060016000846000191660001916815260200190815260200160002060010160009054906101000a900473ffffffffffffffffffffffffffffffffffffffff1673ffffffffffffffffffffffffffffffffffffffff161415151561049757600080fd5b6104a18284610d05565b5050505050565b60008067016345785d8a0000600360003373ffffffffffffffffffffffffffffffffffffffff1673ffffffffffffffffffffffffffffffffffffffff168152602001908152602001600020541015151561050157600080fd5b600360003373ffffffffffffffffffffffffffffffffffffffff1673ffffffffffffffffffffffffffffffffffffffff1681526020019081526020016000205490506000600360003373ffffffffffffffffffffffffffffffffffffffff1673ffffffffffffffffffffffffffffffffffffffff168152602001908152602001600020819055503373ffffffffffffffffffffffffffffffffffffffff166108fc829081150290604051600060405180830381858888f1935050505015156105c857600080fd5b600191505090565b600060016000836000191660001916815260200190815260200160002090508060000160009054906101000a900473ffffffffffffffffffffffffffffffffffffffff1673ffffffffffffffffffffffffffffffffffffffff163373ffffffffffffffffffffffffffffffffffffffff161415801561069f57508060010160009054906101000a900473ffffffffffffffffffffffffffffffffffffffff1673ffffffffffffffffffffffffffffffffffffffff163373ffffffffffffffffffffffffffffffffffffffff1614155b15156106aa57600080fd5b8060050154341415156106bc57600080fd5b8060060154421015156106ce57600080fd5b338160010160006101000a81548173ffffffffffffffffffffffffffffffffffffffff021916908373ffffffffffffffffffffffffffffffffffffffff160217905550828160040160006101000a81548160ff0219169083600381111561073157fe5b0217905550505050565b60026020528060005260406000206000915054906101000a900460ff1681565b60016020528060005260406000206000915090508060000160009054906101000a900473ffffffffffffffffffffffffffffffffffffffff16908060010160009054906101000a900473ffffffffffffffffffffffffffffffffffffffff16908060020160009054906101000a900473ffffffffffffffffffffffffffffffffffffffff16908060030154908060040160009054906101000a900460ff16908060050154908060060154905087565b600060016000836000191660001916815260200190815260200160002090508060010160009054906101000a900473ffffffffffffffffffffffffffffffffffffffff1673ffffffffffffffffffffffffffffffffffffffff163373ffffffffffffffffffffffffffffffffffffffff1614806108d657508060000160009054906101000a900473ffffffffffffffffffffffffffffffffffffffff1673ffffffffffffffffffffffffffffffffffffffff163373ffffffffffffffffffffffffffffffffffffffff16145b15156108e157600080fd5b8060060154421115156108f357600080fd5b60008160010160009054906101000a900473ffffffffffffffffffffffffffffffffffffffff1673ffffffffffffffffffffffffffffffffffffffff1614801561098c57508060000160009054906101000a900473ffffffffffffffffffffffffffffffffffffffff1673ffffffffffffffffffffffffffffffffffffffff163373ffffffffffffffffffffffffffffffffffffffff16145b15610a02578060050154600360008360000160009054906101000a900473ffffffffffffffffffffffffffffffffffffffff1673ffffffffffffffffffffffffffffffffffffffff1673ffffffffffffffffffffffffffffffffffffffff16815260200190815260200160002081905550610a72565b8060050154600202600360008360010160009054906101000a900473ffffffffffffffffffffffffffffffffffffffff1673ffffffffffffffffffffffffffffffffffffffff1673ffffffffffffffffffffffffffffffffffffffff168152602001908152602001600020819055505b610a7b826114b7565b5050565b6000809054906101000a900473ffffffffffffffffffffffffffffffffffffffff1681565b6000803384604051808373ffffffffffffffffffffffffffffffffffffffff1673ffffffffffffffffffffffffffffffffffffffff166c0100000000000000000000000002815260140182600019166000191681526020019250505060405180910390209150600160008360001916600019168152602001908152602001600020905060008160000160009054906101000a900473ffffffffffffffffffffffffffffffffffffffff1673ffffffffffffffffffffffffffffffffffffffff16141515610b7057600080fd5b600060010260001916846000191614151515610b8b57600080fd5b67016345785d8a000034111515610ba157600080fd5b6000151560026000866000191660001916815260200190815260200160002060009054906101000a900460ff161515141515610bdc57600080fd5b338160000160006101000a81548173ffffffffffffffffffffffffffffffffffffffff021916908373ffffffffffffffffffffffffffffffffffffffff1602179055508381600301816000191690555034816005018190555082430181600601819055506001151560026000866000191660001916815260200190815260200160002060009054906101000a905050507f6490a1c573e269fd8d35c91fcf07fe7bfb8ac0a9460cbec974e67af3d213c3c5338334604051808473ffffffffffffffffffffffffffffffffffffffff1673ffffffffffffffffffffffffffffffffffffffff1681526020018360001916600019168152602001828152602001935050505060405180910390a150505050565b60036020528060005260406000206000915090505481565b60008060016000856000191660001916815260200190815260200160002091508160040160009054906101000a900460ff166003811115610d4257fe5b836003811115610d4e57fe5b1415156112b35760016003811115610d6257fe5b836003811115610d6e57fe5b148015610da2575060026003811115610d8357fe5b8260040160009054906101000a900460ff166003811115610da057fe5b145b15610e0f578160010160009054906101000a900473ffffffffffffffffffffffffffffffffffffffff168260020160006101000a81548173ffffffffffffffffffffffffffffffffffffffff021916908373ffffffffffffffffffffffffffffffffffffffff1602179055505b60016003811115610e1c57fe5b836003811115610e2857fe5b148015610e5b5750600380811115610e3c57fe5b8260040160009054906101000a900460ff166003811115610e5957fe5b145b15610ec8578160000160009054906101000a900473ffffffffffffffffffffffffffffffffffffffff168260020160006101000a81548173ffffffffffffffffffffffffffffffffffffffff021916908373ffffffffffffffffffffffffffffffffffffffff1602179055505b60026003811115610ed557fe5b836003811115610ee157fe5b148015610f15575060016003811115610ef657fe5b8260040160009054906101000a900460ff166003811115610f1357fe5b145b15610f82578160000160009054906101000a900473ffffffffffffffffffffffffffffffffffffffff168260020160006101000a81548173ffffffffffffffffffffffffffffffffffffffff021916908373ffffffffffffffffffffffffffffffffffffffff1602179055505b60026003811115610f8f57fe5b836003811115610f9b57fe5b148015610fce5750600380811115610faf57fe5b8260040160009054906101000a900460ff166003811115610fcc57fe5b145b1561103b578160010160009054906101000a900473ffffffffffffffffffffffffffffffffffffffff168260020160006101000a81548173ffffffffffffffffffffffffffffffffffffffff021916908373ffffffffffffffffffffffffffffffffffffffff1602179055505b60038081111561104757fe5b83600381111561105357fe5b14801561108757506001600381111561106857fe5b8260040160009054906101000a900460ff16600381111561108557fe5b145b156110f4578160010160009054906101000a900473ffffffffffffffffffffffffffffffffffffffff168260020160006101000a81548173ffffffffffffffffffffffffffffffffffffffff021916908373ffffffffffffffffffffffffffffffffffffffff1602179055505b60038081111561110057fe5b83600381111561110c57fe5b14801561114057506002600381111561112157fe5b8260040160009054906101000a900460ff16600381111561113e57fe5b145b156111ad578160000160009054906101000a900473ffffffffffffffffffffffffffffffffffffffff168260020160006101000a81548173ffffffffffffffffffffffffffffffffffffffff021916908373ffffffffffffffffffffffffffffffffffffffff1602179055505b8160050154600202905080600360008460020160009054906101000a900473ffffffffffffffffffffffffffffffffffffffff1673ffffffffffffffffffffffffffffffffffffffff1673ffffffffffffffffffffffffffffffffffffffff168152602001908152602001600020819055507ff05dd6d5ef1b159fa8bca24da165c3455be9d0a863d3b84ff88809c58c3499cb8260020160009054906101000a900473ffffffffffffffffffffffffffffffffffffffff1682604051808373ffffffffffffffffffffffffffffffffffffffff1673ffffffffffffffffffffffffffffffffffffffff1681526020018281526020019250505060405180910390a16114a8565b8160050154600360008460000160009054906101000a900473ffffffffffffffffffffffffffffffffffffffff1673ffffffffffffffffffffffffffffffffffffffff1673ffffffffffffffffffffffffffffffffffffffff168152602001908152602001600020819055508160050154600360008460010160009054906101000a900473ffffffffffffffffffffffffffffffffffffffff1673ffffffffffffffffffffffffffffffffffffffff1673ffffffffffffffffffffffffffffffffffffffff168152602001908152602001600020819055507ffae8f87e4ec9f1a474313b32831d41e4e85deb0e35f9f078db501b32edae8ed28260000160009054906101000a900473ffffffffffffffffffffffffffffffffffffffff16848460010160009054906101000a900473ffffffffffffffffffffffffffffffffffffffff168560040160009054906101000a900460ff16604051808573ffffffffffffffffffffffffffffffffffffffff1673ffffffffffffffffffffffffffffffffffffffff16815260200184600381111561144b57fe5b60ff1681526020018373ffffffffffffffffffffffffffffffffffffffff1673ffffffffffffffffffffffffffffffffffffffff16815260200182600381111561149157fe5b60ff16815260200194505050505060405180910390a15b6114b1846114b7565b50505050565b6000600160008360001916600019168152602001908152602001600020905060008160000160006101000a81548173ffffffffffffffffffffffffffffffffffffffff021916908373ffffffffffffffffffffffffffffffffffffffff16021790555060008160010160006101000a81548173ffffffffffffffffffffffffffffffffffffffff021916908373ffffffffffffffffffffffffffffffffffffffff16021790555060008160020160006101000a81548173ffffffffffffffffffffffffffffffffffffffff021916908373ffffffffffffffffffffffffffffffffffffffff1602179055506000600102816003018160001916905550600060038111156115c057fe5b8160040160006101000a81548160ff021916908360038111156115df57fe5b02179055506000816005018190555050505600a165627a7a7230582006f2e487552581abd2aae08757762402ac59d2e945897aee70507fe7d666a88b0029",
  "source": "pragma solidity 0.4.18;\r\n\r\ncontract RockPaperScissors {\r\n    address public owner;\r\n    \r\n    enum RPSMoves{\r\n        NC, Rock, Paper, Scissors\r\n    }\r\n\r\n    struct RPSGame\r\n        {\r\n            address playerOne;\r\n            address playerTwo;\r\n            address winner;\r\n            bytes32 playerOneMove;      \r\n            RPSMoves playerTwoMove;\r\n            uint256 betAmount;\r\n            uint256 gameDuration;\r\n        }\r\n\r\n    mapping(bytes32 => RPSGame) public activeGames;\r\n    mapping(bytes32 => bool) public usedPlayerMoves;\r\n    mapping(address => uint256) public funds;\r\n\r\n    event LogGameCreated(address playerOne, bytes32 gameHash, uint256 betAmount);\r\n    event LogPlayerTwoSetMove(RPSMoves playerTwoMove);\r\n    event LogTieGame(address playerOne, RPSMoves playerOneMove, address playerTwo, RPSMoves playerTwoMove);\r\n    event LogWinner(address winningPlayer, uint256 funds);\r\n    \r\n    function RockPaperScissors()\r\n            public\r\n        {\r\n            owner = msg.sender;\r\n        }\r\n\r\n    function createGame(bytes32 hashPlayerOneMove, uint256 gameDuration)\r\n        external\r\n        payable\r\n\r\n        {   \r\n            bytes32 gameID = keccak256(msg.sender, hashPlayerOneMove);\r\n            RPSGame storage activeGame = activeGames[gameID];\r\n            require(activeGame.playerOne == 0); \r\n            require(hashPlayerOneMove != bytes32(0));\r\n            require(msg.value > 0.1 ether);\r\n            require(usedPlayerMoves[hashPlayerOneMove] == false);\r\n            activeGame.playerOne = msg.sender;\r\n            activeGame.playerOneMove = hashPlayerOneMove;\r\n            activeGame.betAmount = msg.value;\r\n            activeGame.gameDuration = block.number + gameDuration;\r\n            usedPlayerMoves[hashPlayerOneMove] == true;\r\n            LogGameCreated(msg.sender, gameID, msg.value);\r\n        }\r\n\r\n    \r\n    function joinGame(RPSMoves playerTwoMove, bytes32 existingGameHash)\r\n        public\r\n        payable\r\n        {\r\n            RPSGame storage activeGame = activeGames[existingGameHash];\r\n            require(msg.sender != activeGame.playerOne && msg.sender != activeGame.playerTwo);\r\n            require(msg.value == activeGame.betAmount);\r\n            require(now < activeGame.gameDuration);\r\n            activeGame.playerTwo = msg.sender;\r\n            activeGame.playerTwoMove = playerTwoMove;\r\n        }\r\n\r\n\r\n    function playerOneRevealMove(bytes32 hashPlayerOneMove, bytes32 passKey, RPSMoves move)\r\n        public\r\n        {\r\n            bytes32 gameID = keccak256(msg.sender, hashPlayerOneMove);\r\n            bytes32 checkMove = keccak256(move, passKey);\r\n            require(checkMove == hashPlayerOneMove);\r\n            require(activeGames[gameID].playerTwo != 0);       \r\n            determineWinner(gameID, move);\r\n        }\r\n\r\n\r\n    function determineWinner(bytes32 gameID, RPSMoves move)\r\n        internal\r\n        {\r\n            RPSGame storage activeGame = activeGames[gameID];\r\n\r\n            if(move != activeGame.playerTwoMove){\r\n\r\n                if(move == RPSMoves.Rock && activeGame.playerTwoMove == RPSMoves.Paper){activeGame.winner = activeGame.playerTwo;}\r\n                if(move == RPSMoves.Rock && activeGame.playerTwoMove == RPSMoves.Scissors){activeGame.winner = activeGame.playerOne;}\r\n                if(move == RPSMoves.Paper && activeGame.playerTwoMove == RPSMoves.Rock){activeGame.winner = activeGame.playerOne;}\r\n                if(move == RPSMoves.Paper && activeGame.playerTwoMove == RPSMoves.Scissors){activeGame.winner = activeGame.playerTwo;}\r\n                if(move == RPSMoves.Scissors && activeGame.playerTwoMove == RPSMoves.Rock){activeGame.winner = activeGame.playerTwo;}\r\n                if(move == RPSMoves.Scissors && activeGame.playerTwoMove == RPSMoves.Paper){activeGame.winner = activeGame.playerOne;}\r\n\r\n                uint256 totalBet = 2*activeGame.betAmount;\r\n                funds[activeGame.winner] = totalBet;\r\n                LogWinner(activeGame.winner, totalBet);\r\n            } else {\r\n                funds[activeGame.playerOne] = activeGame.betAmount;\r\n                funds[activeGame.playerTwo] = activeGame.betAmount; \r\n                LogTieGame(activeGame.playerOne, move, activeGame.playerTwo, activeGame.playerTwoMove);\r\n            }\r\n            resetGameID(gameID);\r\n        }\r\n    \r\n    function durationPassedPlayerClaim(bytes32 gameID)\r\n        external\r\n        {\r\n            RPSGame storage activeGame = activeGames[gameID];\r\n            require(msg.sender == activeGame.playerTwo || msg.sender == activeGame.playerOne);\r\n            require(now > activeGame.gameDuration);\r\n            if(activeGame.playerTwo == 0 && msg.sender == activeGame.playerOne){\r\n                funds[activeGame.playerOne] = activeGame.betAmount; \r\n            }else{\r\n                funds[activeGame.playerTwo] = 2*activeGame.betAmount;\r\n            }\r\n            resetGameID(gameID);\r\n        }\r\n\r\n    function resetGameID(bytes32 gameID)\r\n        internal\r\n        {\r\n            RPSGame storage activeGame = activeGames[gameID];\r\n            activeGame.playerOne = address(0);\r\n            activeGame.playerTwo = address(0);\r\n            activeGame.winner = address(0);\r\n            activeGame.playerOneMove = bytes32(0);\r\n            activeGame.playerTwoMove = RPSMoves(0);\r\n            activeGame.betAmount = 0;    \r\n        }\r\n\r\n    ///@notice allows participants to withdraw funds win quit or tie\r\n    function withdrawFunds()\r\n        external\r\n        returns(bool withdrawSuccess)\r\n        {\r\n            require(funds[msg.sender] >= 0.1 ether);\r\n            uint256 amount = funds[msg.sender];\r\n            funds[msg.sender] = 0;\r\n            msg.sender.transfer(amount);\r\n            return(true);\r\n        }\r\n\r\n}",
  "sourcePath": "D:\\Training\\RPS_Project\\contracts\\RPS_v5.sol",
  "compiler": {
    "name": "solc",
    "version": "0.4.18+commit.9cf6e910.Emscripten.clang"
  },
  "schemaVersion": "1.0.1",
  "updatedAt": "2018-01-19T21:32:08.347Z"
}